{
  "_format": "hh-sol-artifact-1",
  "contractName": "GitHubPayer",
  "sourceName": "contracts/GitHubPayer.sol",
  "abi": [
    {
      "inputs": [],
      "stateMutability": "payable",
      "type": "constructor"
    },
    {
      "inputs": [],
      "name": "deposit",
      "outputs": [],
      "stateMutability": "payable",
      "type": "function"
    },
    {
      "inputs": [],
      "name": "owner",
      "outputs": [
        {
          "internalType": "address payable",
          "name": "",
          "type": "address"
        }
      ],
      "stateMutability": "view",
      "type": "function"
    },
    {
      "inputs": [
        {
          "internalType": "address payable",
          "name": "_to",
          "type": "address"
        },
        {
          "internalType": "uint256",
          "name": "_amount",
          "type": "uint256"
        }
      ],
      "name": "transfer",
      "outputs": [],
      "stateMutability": "nonpayable",
      "type": "function"
    },
    {
      "inputs": [],
      "name": "withdraw",
      "outputs": [],
      "stateMutability": "nonpayable",
      "type": "function"
    }
  ],
  "bytecode": "0x6080604052336000806101000a81548173ffffffffffffffffffffffffffffffffffffffff021916908373ffffffffffffffffffffffffffffffffffffffff16021790555061045e806100536000396000f3fe60806040526004361061003f5760003560e01c80633ccfd60b146100445780638da5cb5b1461005b578063a9059cbb14610086578063d0e30db0146100af575b600080fd5b34801561005057600080fd5b506100596100b9565b005b34801561006757600080fd5b5061007061018f565b60405161007d919061033b565b60405180910390f35b34801561009257600080fd5b506100ad60048036038101906100a89190610295565b6101b3565b005b6100b7610269565b005b600047905060008060009054906101000a900473ffffffffffffffffffffffffffffffffffffffff1673ffffffffffffffffffffffffffffffffffffffff168260405161010590610326565b60006040518083038185875af1925050503d8060008114610142576040519150601f19603f3d011682016040523d82523d6000602084013e610147565b606091505b505090508061018b576040517f08c379a000000000000000000000000000000000000000000000000000000000815260040161018290610356565b60405180910390fd5b5050565b60008054906101000a900473ffffffffffffffffffffffffffffffffffffffff1681565b60008273ffffffffffffffffffffffffffffffffffffffff1682612710906040516101dd90610326565b600060405180830381858888f193505050503d806000811461021b576040519150601f19603f3d011682016040523d82523d6000602084013e610220565b606091505b5050905080610264576040517f08c379a000000000000000000000000000000000000000000000000000000000815260040161025b90610356565b60405180910390fd5b505050565b565b60008135905061027a816103fa565b92915050565b60008135905061028f81610411565b92915050565b600080604083850312156102a857600080fd5b60006102b68582860161026b565b92505060206102c785828601610280565b9150509250929050565b6102da81610392565b82525050565b60006102ed601483610381565b91506102f8826103ce565b602082019050919050565b6000610310600083610376565b915061031b826103f7565b600082019050919050565b600061033182610303565b9150819050919050565b600060208201905061035060008301846102d1565b92915050565b6000602082019050818103600083015261036f816102e0565b9050919050565b600081905092915050565b600082825260208201905092915050565b600061039d826103a4565b9050919050565b600073ffffffffffffffffffffffffffffffffffffffff82169050919050565b6000819050919050565b7f4661696c656420746f2073656e64204574686572000000000000000000000000600082015250565b50565b61040381610392565b811461040e57600080fd5b50565b61041a816103c4565b811461042557600080fd5b5056fea2646970667358221220a18e1489a83f6fd5c2081457ad597e08fb47ae9c57407f6284187020beab40f064736f6c63430008040033",
  "linkReferences": {},
  "deployedLinkReferences": {}
}