{
  "_format": "hh-sol-artifact-1",
  "contractName": "GitHubPayer",
  "sourceName": "contracts/GitHubPayer.sol",
  "abi": [
    {
      "inputs": [],
      "stateMutability": "payable",
      "type": "constructor"
    },
    {
      "inputs": [],
      "name": "deposit",
      "outputs": [],
      "stateMutability": "payable",
      "type": "function"
    },
    {
      "inputs": [],
      "name": "owner",
      "outputs": [
        {
          "internalType": "address payable",
          "name": "",
          "type": "address"
        }
      ],
      "stateMutability": "view",
      "type": "function"
    },
    {
      "inputs": [
        {
          "internalType": "address payable",
          "name": "_to",
          "type": "address"
        },
        {
          "internalType": "uint256",
          "name": "_amount",
          "type": "uint256"
        }
      ],
      "name": "transfer",
      "outputs": [],
      "stateMutability": "nonpayable",
      "type": "function"
    },
    {
      "inputs": [],
      "name": "withdraw",
      "outputs": [],
      "stateMutability": "nonpayable",
      "type": "function"
    }
  ],
  "bytecode": "0x6080604052336000806101000a81548173ffffffffffffffffffffffffffffffffffffffff021916908373ffffffffffffffffffffffffffffffffffffffff160217905550610459806100536000396000f3fe60806040526004361061003f5760003560e01c80633ccfd60b146100445780638da5cb5b1461005b578063a9059cbb14610086578063d0e30db0146100af575b600080fd5b34801561005057600080fd5b506100596100b9565b005b34801561006757600080fd5b5061007061018f565b60405161007d9190610336565b60405180910390f35b34801561009257600080fd5b506100ad60048036038101906100a89190610290565b6101b3565b005b6100b7610264565b005b600047905060008060009054906101000a900473ffffffffffffffffffffffffffffffffffffffff1673ffffffffffffffffffffffffffffffffffffffff168260405161010590610321565b60006040518083038185875af1925050503d8060008114610142576040519150601f19603f3d011682016040523d82523d6000602084013e610147565b606091505b505090508061018b576040517f08c379a000000000000000000000000000000000000000000000000000000000815260040161018290610351565b60405180910390fd5b5050565b60008054906101000a900473ffffffffffffffffffffffffffffffffffffffff1681565b60008273ffffffffffffffffffffffffffffffffffffffff16826040516101d990610321565b60006040518083038185875af1925050503d8060008114610216576040519150601f19603f3d011682016040523d82523d6000602084013e61021b565b606091505b505090508061025f576040517f08c379a000000000000000000000000000000000000000000000000000000000815260040161025690610351565b60405180910390fd5b505050565b565b600081359050610275816103f5565b92915050565b60008135905061028a8161040c565b92915050565b600080604083850312156102a357600080fd5b60006102b185828601610266565b92505060206102c28582860161027b565b9150509250929050565b6102d58161038d565b82525050565b60006102e860148361037c565b91506102f3826103c9565b602082019050919050565b600061030b600083610371565b9150610316826103f2565b600082019050919050565b600061032c826102fe565b9150819050919050565b600060208201905061034b60008301846102cc565b92915050565b6000602082019050818103600083015261036a816102db565b9050919050565b600081905092915050565b600082825260208201905092915050565b60006103988261039f565b9050919050565b600073ffffffffffffffffffffffffffffffffffffffff82169050919050565b6000819050919050565b7f4661696c656420746f2073656e64204574686572000000000000000000000000600082015250565b50565b6103fe8161038d565b811461040957600080fd5b50565b610415816103bf565b811461042057600080fd5b5056fea2646970667358221220491ce6381a9ef71032383202506be107b8234957fdbebed6b8c333a18458498b64736f6c63430008040033",
  "linkReferences": {},
  "deployedLinkReferences": {}
}